{
  "_format": "hh-sol-artifact-1",
  "contractName": "UserProfile",
  "sourceName": "contracts/UserProfile.sol",
  "abi": [
    {
      "inputs": [],
      "stateMutability": "nonpayable",
      "type": "constructor"
    },
    {
      "inputs": [
        {
          "internalType": "address",
          "name": "owner",
          "type": "address"
        }
      ],
      "name": "OwnableInvalidOwner",
      "type": "error"
    },
    {
      "inputs": [
        {
          "internalType": "address",
          "name": "account",
          "type": "address"
        }
      ],
      "name": "OwnableUnauthorizedAccount",
      "type": "error"
    },
    {
      "anonymous": false,
      "inputs": [
        {
          "indexed": true,
          "internalType": "address",
          "name": "previousOwner",
          "type": "address"
        },
        {
          "indexed": true,
          "internalType": "address",
          "name": "newOwner",
          "type": "address"
        }
      ],
      "name": "OwnershipTransferred",
      "type": "event"
    },
    {
      "anonymous": false,
      "inputs": [
        {
          "indexed": true,
          "internalType": "address",
          "name": "userAddress",
          "type": "address"
        },
        {
          "indexed": false,
          "internalType": "string",
          "name": "username",
          "type": "string"
        },
        {
          "indexed": false,
          "internalType": "string",
          "name": "email",
          "type": "string"
        }
      ],
      "name": "UserRegistered",
      "type": "event"
    },
    {
      "inputs": [
        {
          "internalType": "address",
          "name": "userAddress",
          "type": "address"
        }
      ],
      "name": "getUserInfo",
      "outputs": [
        {
          "internalType": "string",
          "name": "username",
          "type": "string"
        },
        {
          "internalType": "string",
          "name": "email",
          "type": "string"
        },
        {
          "internalType": "bool",
          "name": "isRegistered",
          "type": "bool"
        }
      ],
      "stateMutability": "view",
      "type": "function"
    },
    {
      "inputs": [
        {
          "internalType": "address",
          "name": "userAddress",
          "type": "address"
        }
      ],
      "name": "isUserRegistered",
      "outputs": [
        {
          "internalType": "bool",
          "name": "",
          "type": "bool"
        }
      ],
      "stateMutability": "view",
      "type": "function"
    },
    {
      "inputs": [],
      "name": "owner",
      "outputs": [
        {
          "internalType": "address",
          "name": "",
          "type": "address"
        }
      ],
      "stateMutability": "view",
      "type": "function"
    },
    {
      "inputs": [
        {
          "internalType": "string",
          "name": "_username",
          "type": "string"
        },
        {
          "internalType": "string",
          "name": "_email",
          "type": "string"
        }
      ],
      "name": "registerUser",
      "outputs": [],
      "stateMutability": "nonpayable",
      "type": "function"
    },
    {
      "inputs": [],
      "name": "renounceOwnership",
      "outputs": [],
      "stateMutability": "nonpayable",
      "type": "function"
    },
    {
      "inputs": [
        {
          "internalType": "address",
          "name": "newOwner",
          "type": "address"
        }
      ],
      "name": "transferOwnership",
      "outputs": [],
      "stateMutability": "nonpayable",
      "type": "function"
    }
  ],
  "bytecode": "0x608060405234801561001057600080fd5b50338061003757604051631e4fbdf760e01b81526000600482015260240160405180910390fd5b61004081610046565b50610096565b600080546001600160a01b038381166001600160a01b0319831681178455604051919092169283917f8be0079c531659141344cd1fd0a4f28419497f9722a3daafe3b4186f6b6457e09190a35050565b6107db806100a56000396000f3fe608060405234801561001057600080fd5b50600436106100625760003560e01c8063163f7522146100675780631d2e4afd146100ab5780636386c1c7146100c0578063715018a6146100e25780638da5cb5b146100ea578063f2fde38b14610105575b600080fd5b610096610075366004610479565b6001600160a01b031660009081526001602052604090206002015460ff1690565b60405190151581526020015b60405180910390f35b6100be6100b936600461054c565b610118565b005b6100d36100ce366004610479565b610226565b6040516100a2939291906105f6565b6100be6103aa565b6000546040516001600160a01b0390911681526020016100a2565b6100be610113366004610479565b6103be565b3360009081526001602052604090206002015460ff16156101805760405162461bcd60e51b815260206004820152601760248201527f5573657220616c7265616479207265676973746572656400000000000000000060448201526064015b60405180910390fd5b6040805160608101825283815260208082018490526001828401819052336000908152915291909120815181906101b790826106b7565b50602082015160018201906101cc90826106b7565b50604091820151600291909101805460ff19169115159190911790555133907f92822564bab8864c3a47b34e8d23fbce5c46234eb5da261f94087b995ac0f33b9061021a9085908590610777565b60405180910390a25050565b60608060008060016000866001600160a01b03166001600160a01b0316815260200190815260200160002060405180606001604052908160008201805461026c9061062e565b80601f01602080910402602001604051908101604052809291908181526020018280546102989061062e565b80156102e55780601f106102ba576101008083540402835291602001916102e5565b820191906000526020600020905b8154815290600101906020018083116102c857829003601f168201915b505050505081526020016001820180546102fe9061062e565b80601f016020809104026020016040519081016040528092919081815260200182805461032a9061062e565b80156103775780601f1061034c57610100808354040283529160200191610377565b820191906000526020600020905b81548152906001019060200180831161035a57829003601f168201915b50505091835250506002919091015460ff1615156020918201528151908201516040909201519097919650945092505050565b6103b26103fc565b6103bc6000610429565b565b6103c66103fc565b6001600160a01b0381166103f057604051631e4fbdf760e01b815260006004820152602401610177565b6103f981610429565b50565b6000546001600160a01b031633146103bc5760405163118cdaa760e01b8152336004820152602401610177565b600080546001600160a01b038381166001600160a01b0319831681178455604051919092169283917f8be0079c531659141344cd1fd0a4f28419497f9722a3daafe3b4186f6b6457e09190a35050565b60006020828403121561048b57600080fd5b81356001600160a01b03811681146104a257600080fd5b9392505050565b634e487b7160e01b600052604160045260246000fd5b600082601f8301126104d057600080fd5b813567ffffffffffffffff808211156104eb576104eb6104a9565b604051601f8301601f19908116603f01168101908282118183101715610513576105136104a9565b8160405283815286602085880101111561052c57600080fd5b836020870160208301376000602085830101528094505050505092915050565b6000806040838503121561055f57600080fd5b823567ffffffffffffffff8082111561057757600080fd5b610583868387016104bf565b9350602085013591508082111561059957600080fd5b506105a6858286016104bf565b9150509250929050565b6000815180845260005b818110156105d6576020818501810151868301820152016105ba565b506000602082860101526020601f19601f83011685010191505092915050565b60608152600061060960608301866105b0565b828103602084015261061b81866105b0565b9150508215156040830152949350505050565b600181811c9082168061064257607f821691505b60208210810361066257634e487b7160e01b600052602260045260246000fd5b50919050565b601f8211156106b257600081815260208120601f850160051c8101602086101561068f5750805b601f850160051c820191505b818110156106ae5782815560010161069b565b5050505b505050565b815167ffffffffffffffff8111156106d1576106d16104a9565b6106e5816106df845461062e565b84610668565b602080601f83116001811461071a57600084156107025750858301515b600019600386901b1c1916600185901b1785556106ae565b600085815260208120601f198616915b828110156107495788860151825594840194600190910190840161072a565b50858210156107675787850151600019600388901b60f8161c191681555b5050505050600190811b01905550565b60408152600061078a60408301856105b0565b828103602084015261079c81856105b0565b9594505050505056fea26469706673582212205bdf4591a7802bd4260f1a3fdff70e88cb25aa3d5bd2669652190ff39d36f14a64736f6c63430008140033",
  "linkReferences": {},
  "deployedLinkReferences": {}
}