{
  "_format": "hh-sol-artifact-1",
  "contractName": "GymCoin",
  "sourceName": "contracts/GymCoin.sol",
  "abi": [
    {
      "inputs": [
        {
          "internalType": "address",
          "name": "_userProfileAddress",
          "type": "address"
        }
      ],
      "stateMutability": "nonpayable",
      "type": "constructor"
    },
    {
      "inputs": [
        {
          "internalType": "address",
          "name": "spender",
          "type": "address"
        },
        {
          "internalType": "uint256",
          "name": "allowance",
          "type": "uint256"
        },
        {
          "internalType": "uint256",
          "name": "needed",
          "type": "uint256"
        }
      ],
      "name": "ERC20InsufficientAllowance",
      "type": "error"
    },
    {
      "inputs": [
        {
          "internalType": "address",
          "name": "sender",
          "type": "address"
        },
        {
          "internalType": "uint256",
          "name": "balance",
          "type": "uint256"
        },
        {
          "internalType": "uint256",
          "name": "needed",
          "type": "uint256"
        }
      ],
      "name": "ERC20InsufficientBalance",
      "type": "error"
    },
    {
      "inputs": [
        {
          "internalType": "address",
          "name": "approver",
          "type": "address"
        }
      ],
      "name": "ERC20InvalidApprover",
      "type": "error"
    },
    {
      "inputs": [
        {
          "internalType": "address",
          "name": "receiver",
          "type": "address"
        }
      ],
      "name": "ERC20InvalidReceiver",
      "type": "error"
    },
    {
      "inputs": [
        {
          "internalType": "address",
          "name": "sender",
          "type": "address"
        }
      ],
      "name": "ERC20InvalidSender",
      "type": "error"
    },
    {
      "inputs": [
        {
          "internalType": "address",
          "name": "spender",
          "type": "address"
        }
      ],
      "name": "ERC20InvalidSpender",
      "type": "error"
    },
    {
      "inputs": [
        {
          "internalType": "address",
          "name": "owner",
          "type": "address"
        }
      ],
      "name": "OwnableInvalidOwner",
      "type": "error"
    },
    {
      "inputs": [
        {
          "internalType": "address",
          "name": "account",
          "type": "address"
        }
      ],
      "name": "OwnableUnauthorizedAccount",
      "type": "error"
    },
    {
      "anonymous": false,
      "inputs": [
        {
          "indexed": true,
          "internalType": "address",
          "name": "owner",
          "type": "address"
        },
        {
          "indexed": true,
          "internalType": "address",
          "name": "spender",
          "type": "address"
        },
        {
          "indexed": false,
          "internalType": "uint256",
          "name": "value",
          "type": "uint256"
        }
      ],
      "name": "Approval",
      "type": "event"
    },
    {
      "anonymous": false,
      "inputs": [
        {
          "indexed": true,
          "internalType": "address",
          "name": "previousOwner",
          "type": "address"
        },
        {
          "indexed": true,
          "internalType": "address",
          "name": "newOwner",
          "type": "address"
        }
      ],
      "name": "OwnershipTransferred",
      "type": "event"
    },
    {
      "anonymous": false,
      "inputs": [
        {
          "indexed": false,
          "internalType": "uint256",
          "name": "newSellRate",
          "type": "uint256"
        },
        {
          "indexed": false,
          "internalType": "uint256",
          "name": "newBuyRate",
          "type": "uint256"
        }
      ],
      "name": "RatesUpdated",
      "type": "event"
    },
    {
      "anonymous": false,
      "inputs": [
        {
          "indexed": true,
          "internalType": "address",
          "name": "recipient",
          "type": "address"
        },
        {
          "indexed": false,
          "internalType": "uint256",
          "name": "amount",
          "type": "uint256"
        }
      ],
      "name": "TestTokensGiven",
      "type": "event"
    },
    {
      "anonymous": false,
      "inputs": [
        {
          "indexed": true,
          "internalType": "address",
          "name": "buyer",
          "type": "address"
        },
        {
          "indexed": false,
          "internalType": "uint256",
          "name": "ethAmount",
          "type": "uint256"
        },
        {
          "indexed": false,
          "internalType": "uint256",
          "name": "tokenAmount",
          "type": "uint256"
        }
      ],
      "name": "TokensPurchased",
      "type": "event"
    },
    {
      "anonymous": false,
      "inputs": [
        {
          "indexed": true,
          "internalType": "address",
          "name": "seller",
          "type": "address"
        },
        {
          "indexed": false,
          "internalType": "uint256",
          "name": "tokenAmount",
          "type": "uint256"
        },
        {
          "indexed": false,
          "internalType": "uint256",
          "name": "ethAmount",
          "type": "uint256"
        }
      ],
      "name": "TokensSold",
      "type": "event"
    },
    {
      "anonymous": false,
      "inputs": [
        {
          "indexed": true,
          "internalType": "address",
          "name": "from",
          "type": "address"
        },
        {
          "indexed": true,
          "internalType": "address",
          "name": "to",
          "type": "address"
        },
        {
          "indexed": false,
          "internalType": "uint256",
          "name": "value",
          "type": "uint256"
        }
      ],
      "name": "Transfer",
      "type": "event"
    },
    {
      "inputs": [
        {
          "internalType": "address",
          "name": "owner",
          "type": "address"
        },
        {
          "internalType": "address",
          "name": "spender",
          "type": "address"
        }
      ],
      "name": "allowance",
      "outputs": [
        {
          "internalType": "uint256",
          "name": "",
          "type": "uint256"
        }
      ],
      "stateMutability": "view",
      "type": "function"
    },
    {
      "inputs": [
        {
          "internalType": "address",
          "name": "spender",
          "type": "address"
        },
        {
          "internalType": "uint256",
          "name": "value",
          "type": "uint256"
        }
      ],
      "name": "approve",
      "outputs": [
        {
          "internalType": "bool",
          "name": "",
          "type": "bool"
        }
      ],
      "stateMutability": "nonpayable",
      "type": "function"
    },
    {
      "inputs": [
        {
          "internalType": "address",
          "name": "account",
          "type": "address"
        }
      ],
      "name": "balanceOf",
      "outputs": [
        {
          "internalType": "uint256",
          "name": "",
          "type": "uint256"
        }
      ],
      "stateMutability": "view",
      "type": "function"
    },
    {
      "inputs": [
        {
          "internalType": "uint256",
          "name": "gcAmount",
          "type": "uint256"
        }
      ],
      "name": "buy",
      "outputs": [],
      "stateMutability": "payable",
      "type": "function"
    },
    {
      "inputs": [],
      "name": "buyRate",
      "outputs": [
        {
          "internalType": "uint256",
          "name": "",
          "type": "uint256"
        }
      ],
      "stateMutability": "view",
      "type": "function"
    },
    {
      "inputs": [],
      "name": "decimals",
      "outputs": [
        {
          "internalType": "uint8",
          "name": "",
          "type": "uint8"
        }
      ],
      "stateMutability": "view",
      "type": "function"
    },
    {
      "inputs": [
        {
          "internalType": "address",
          "name": "recipient",
          "type": "address"
        },
        {
          "internalType": "uint256",
          "name": "amount",
          "type": "uint256"
        }
      ],
      "name": "giveTestTokens",
      "outputs": [],
      "stateMutability": "nonpayable",
      "type": "function"
    },
    {
      "inputs": [],
      "name": "name",
      "outputs": [
        {
          "internalType": "string",
          "name": "",
          "type": "string"
        }
      ],
      "stateMutability": "view",
      "type": "function"
    },
    {
      "inputs": [],
      "name": "owner",
      "outputs": [
        {
          "internalType": "address",
          "name": "",
          "type": "address"
        }
      ],
      "stateMutability": "view",
      "type": "function"
    },
    {
      "inputs": [],
      "name": "renounceOwnership",
      "outputs": [],
      "stateMutability": "nonpayable",
      "type": "function"
    },
    {
      "inputs": [
        {
          "internalType": "uint256",
          "name": "gcAmount",
          "type": "uint256"
        }
      ],
      "name": "sell",
      "outputs": [],
      "stateMutability": "nonpayable",
      "type": "function"
    },
    {
      "inputs": [],
      "name": "sellRate",
      "outputs": [
        {
          "internalType": "uint256",
          "name": "",
          "type": "uint256"
        }
      ],
      "stateMutability": "view",
      "type": "function"
    },
    {
      "inputs": [
        {
          "internalType": "uint256",
          "name": "_sellRate",
          "type": "uint256"
        },
        {
          "internalType": "uint256",
          "name": "_buyRate",
          "type": "uint256"
        }
      ],
      "name": "setRates",
      "outputs": [],
      "stateMutability": "nonpayable",
      "type": "function"
    },
    {
      "inputs": [],
      "name": "symbol",
      "outputs": [
        {
          "internalType": "string",
          "name": "",
          "type": "string"
        }
      ],
      "stateMutability": "view",
      "type": "function"
    },
    {
      "inputs": [],
      "name": "totalSupply",
      "outputs": [
        {
          "internalType": "uint256",
          "name": "",
          "type": "uint256"
        }
      ],
      "stateMutability": "view",
      "type": "function"
    },
    {
      "inputs": [
        {
          "internalType": "address",
          "name": "to",
          "type": "address"
        },
        {
          "internalType": "uint256",
          "name": "value",
          "type": "uint256"
        }
      ],
      "name": "transfer",
      "outputs": [
        {
          "internalType": "bool",
          "name": "",
          "type": "bool"
        }
      ],
      "stateMutability": "nonpayable",
      "type": "function"
    },
    {
      "inputs": [
        {
          "internalType": "address",
          "name": "from",
          "type": "address"
        },
        {
          "internalType": "address",
          "name": "to",
          "type": "address"
        },
        {
          "internalType": "uint256",
          "name": "value",
          "type": "uint256"
        }
      ],
      "name": "transferFrom",
      "outputs": [
        {
          "internalType": "bool",
          "name": "",
          "type": "bool"
        }
      ],
      "stateMutability": "nonpayable",
      "type": "function"
    },
    {
      "inputs": [
        {
          "internalType": "address",
          "name": "newOwner",
          "type": "address"
        }
      ],
      "name": "transferOwnership",
      "outputs": [],
      "stateMutability": "nonpayable",
      "type": "function"
    },
    {
      "stateMutability": "payable",
      "type": "receive"
    }
  ],
  "bytecode": "0x60806040523480156200001157600080fd5b506040516200168b3803806200168b8339810160408190526200003491620002ef565b336040518060400160405280600881526020016723bcb69021b7b4b760c11b81525060405180604001604052806002815260200161474360f01b8152508160039081620000829190620003c6565b506004620000918282620003c6565b5050506001600160a01b038116620000c457604051631e4fbdf760e01b8152600060048201526024015b60405180910390fd5b620000cf816200012c565b50600680546001600160a01b0319166001600160a01b038316179055606460075560c8600855620001253362000103601290565b6200011090600a620005a7565b6200011f90620f4240620005b8565b6200017e565b50620005e8565b600580546001600160a01b038381166001600160a01b0319831681179093556040519116919082907f8be0079c531659141344cd1fd0a4f28419497f9722a3daafe3b4186f6b6457e090600090a35050565b6001600160a01b038216620001aa5760405163ec442f0560e01b815260006004820152602401620000bb565b620001b860008383620001bc565b5050565b6001600160a01b038316620001eb578060026000828254620001df9190620005d2565b909155506200025f9050565b6001600160a01b03831660009081526020819052604090205481811015620002405760405163391434e360e21b81526001600160a01b03851660048201526024810182905260448101839052606401620000bb565b6001600160a01b03841660009081526020819052604090209082900390555b6001600160a01b0382166200027d576002805482900390556200029c565b6001600160a01b03821660009081526020819052604090208054820190555b816001600160a01b0316836001600160a01b03167fddf252ad1be2c89b69c2b068fc378daa952ba7f163c4a11628f55a4df523b3ef83604051620002e291815260200190565b60405180910390a3505050565b6000602082840312156200030257600080fd5b81516001600160a01b03811681146200031a57600080fd5b9392505050565b634e487b7160e01b600052604160045260246000fd5b600181811c908216806200034c57607f821691505b6020821081036200036d57634e487b7160e01b600052602260045260246000fd5b50919050565b601f821115620003c157600081815260208120601f850160051c810160208610156200039c5750805b601f850160051c820191505b81811015620003bd57828155600101620003a8565b5050505b505050565b81516001600160401b03811115620003e257620003e262000321565b620003fa81620003f3845462000337565b8462000373565b602080601f831160018114620004325760008415620004195750858301515b600019600386901b1c1916600185901b178555620003bd565b600085815260208120601f198616915b82811015620004635788860151825594840194600190910190840162000442565b5085821015620004825787850151600019600388901b60f8161c191681555b5050505050600190811b01905550565b634e487b7160e01b600052601160045260246000fd5b600181815b80851115620004e9578160001904821115620004cd57620004cd62000492565b80851615620004db57918102915b93841c9390800290620004ad565b509250929050565b6000826200050257506001620005a1565b816200051157506000620005a1565b81600181146200052a5760028114620005355762000555565b6001915050620005a1565b60ff84111562000549576200054962000492565b50506001821b620005a1565b5060208310610133831016604e8410600b84101617156200057a575081810a620005a1565b620005868383620004a8565b80600019048211156200059d576200059d62000492565b0290505b92915050565b60006200031a60ff841683620004f1565b8082028115828204841417620005a157620005a162000492565b80820180821115620005a157620005a162000492565b61109380620005f86000396000f3fe60806040526004361061010d5760003560e01c80638da5cb5b11610095578063d96a094a11610064578063d96a094a146102cf578063dd62ed3e146102e2578063e4849b3214610328578063f2fde38b14610348578063fc37987b1461036857600080fd5b80638da5cb5b1461025257806395d89b411461027a578063a9059cbb1461028f578063ac6af280146102af57600080fd5b80632b6ac59a116100dc5780632b6ac59a146101b3578063313ce567146101d55780636217229b146101f157806370a0823114610207578063715018a61461023d57600080fd5b806306fdde0314610119578063095ea7b31461014457806318160ddd1461017457806323b872dd1461019357600080fd5b3661011457005b600080fd5b34801561012557600080fd5b5061012e61037e565b60405161013b9190610e0c565b60405180910390f35b34801561015057600080fd5b5061016461015f366004610e76565b610410565b604051901515815260200161013b565b34801561018057600080fd5b506002545b60405190815260200161013b565b34801561019f57600080fd5b506101646101ae366004610ea0565b61042a565b3480156101bf57600080fd5b506101d36101ce366004610e76565b61044e565b005b3480156101e157600080fd5b506040516012815260200161013b565b3480156101fd57600080fd5b5061018560075481565b34801561021357600080fd5b50610185610222366004610edc565b6001600160a01b031660009081526020819052604090205490565b34801561024957600080fd5b506101d361053c565b34801561025e57600080fd5b506005546040516001600160a01b03909116815260200161013b565b34801561028657600080fd5b5061012e610550565b34801561029b57600080fd5b506101646102aa366004610e76565b61055f565b3480156102bb57600080fd5b506101d36102ca366004610efe565b61056d565b6101d36102dd366004610f20565b610618565b3480156102ee57600080fd5b506101856102fd366004610f39565b6001600160a01b03918216600090815260016020908152604080832093909416825291909152205490565b34801561033457600080fd5b506101d3610343366004610f20565b61084f565b34801561035457600080fd5b506101d3610363366004610edc565b610a60565b34801561037457600080fd5b5061018560085481565b60606003805461038d90610f6c565b80601f01602080910402602001604051908101604052809291908181526020018280546103b990610f6c565b80156104065780601f106103db57610100808354040283529160200191610406565b820191906000526020600020905b8154815290600101906020018083116103e957829003601f168201915b5050505050905090565b60003361041e818585610a9e565b60019150505b92915050565b600033610438858285610ab0565b610443858585610b2f565b506001949350505050565b610456610b8e565b6000811161047f5760405162461bcd60e51b815260040161047690610fa6565b60405180910390fd5b806104956102226005546001600160a01b031690565b10156104d95760405162461bcd60e51b8152602060048201526013602482015272496e73756666696369656e7420746f6b656e7360681b6044820152606401610476565b6104f56104ee6005546001600160a01b031690565b8383610b2f565b816001600160a01b03167f95cbff732df3abf2fc907b273eb4a8679e8d8064f560566137e08b1c05bc18e78260405161053091815260200190565b60405180910390a25050565b610544610b8e565b61054e6000610bbb565b565b60606004805461038d90610f6c565b60003361041e818585610b2f565b610575610b8e565b6000821180156105855750600081115b6105d15760405162461bcd60e51b815260206004820152601c60248201527f5261746573206d7573742062652067726561746572207468616e2030000000006044820152606401610476565b6007829055600881905560408051838152602081018390527f0cf6ce3db485f79e960e63b1550af071fe0c99c09834149273e0fa8b32018ff8910160405180910390a15050565b600081116106385760405162461bcd60e51b815260040161047690610fa6565b600654604051630b1fba9160e11b81523360048201526001600160a01b039091169063163f752290602401602060405180830381865afa158015610680573d6000803e3d6000fd5b505050506040513d601f19601f820116820180604052508101906106a49190610fdd565b6106e65760405162461bcd60e51b8152602060048201526013602482015272155cd95c881b9bdd081c9959da5cdd195c9959606a1b6044820152606401610476565b6000600754826106f69190611015565b9050803410156107405760405162461bcd60e51b8152602060048201526015602482015274125b9cdd59999a58da595b9d08115512081cd95b9d605a1b6044820152606401610476565b60006107546005546001600160a01b031690565b905082610776826001600160a01b031660009081526020819052604090205490565b10156107c45760405162461bcd60e51b815260206004820152601d60248201527f4f776e65722068617320696e73756666696369656e7420746f6b656e730000006044820152606401610476565b6107cf813385610b2f565b8134111561080f57336108fc6107e58434611037565b6040518115909202916000818181858888f1935050505015801561080d573d6000803e3d6000fd5b505b604080518381526020810185905233917f8fafebcaf9d154343dad25669bfa277f4fbacd7ac6b0c4fed522580e040a0f33910160405180910390a2505050565b6000811161086f5760405162461bcd60e51b815260040161047690610fa6565b600654604051630b1fba9160e11b81523360048201526001600160a01b039091169063163f752290602401602060405180830381865afa1580156108b7573d6000803e3d6000fd5b505050506040513d601f19601f820116820180604052508101906108db9190610fdd565b61091d5760405162461bcd60e51b8152602060048201526013602482015272155cd95c881b9bdd081c9959da5cdd195c9959606a1b6044820152606401610476565b3360009081526020819052604090205481111561097c5760405162461bcd60e51b815260206004820152601a60248201527f496e73756666696369656e7420746f6b656e2062616c616e63650000000000006044820152606401610476565b60006008548261098c9190611015565b9050804710156109de5760405162461bcd60e51b815260206004820152601d60248201527f436f6e74726163742068617320696e73756666696369656e74204554480000006044820152606401610476565b6109fa336109f46005546001600160a01b031690565b84610b2f565b604051339082156108fc029083906000818181858888f19350505050158015610a27573d6000803e3d6000fd5b50604080518381526020810183905233917f2dcf9433d75db0d8b1c172641f85e319ffe4ad22e108a95d1847ceb906e5195d9101610530565b610a68610b8e565b6001600160a01b038116610a9257604051631e4fbdf760e01b815260006004820152602401610476565b610a9b81610bbb565b50565b610aab8383836001610c0d565b505050565b6001600160a01b03838116600090815260016020908152604080832093861683529290522054600019811015610b295781811015610b1a57604051637dc7a0d960e11b81526001600160a01b03841660048201526024810182905260448101839052606401610476565b610b2984848484036000610c0d565b50505050565b6001600160a01b038316610b5957604051634b637e8f60e11b815260006004820152602401610476565b6001600160a01b038216610b835760405163ec442f0560e01b815260006004820152602401610476565b610aab838383610ce2565b6005546001600160a01b0316331461054e5760405163118cdaa760e01b8152336004820152602401610476565b600580546001600160a01b038381166001600160a01b0319831681179093556040519116919082907f8be0079c531659141344cd1fd0a4f28419497f9722a3daafe3b4186f6b6457e090600090a35050565b6001600160a01b038416610c375760405163e602df0560e01b815260006004820152602401610476565b6001600160a01b038316610c6157604051634a1406b160e11b815260006004820152602401610476565b6001600160a01b0380851660009081526001602090815260408083209387168352929052208290558015610b2957826001600160a01b0316846001600160a01b03167f8c5be1e5ebec7d5bd14f71427d1e84f3dd0314c0f7b2291e5b200ac8c7c3b92584604051610cd491815260200190565b60405180910390a350505050565b6001600160a01b038316610d0d578060026000828254610d02919061104a565b90915550610d7f9050565b6001600160a01b03831660009081526020819052604090205481811015610d605760405163391434e360e21b81526001600160a01b03851660048201526024810182905260448101839052606401610476565b6001600160a01b03841660009081526020819052604090209082900390555b6001600160a01b038216610d9b57600280548290039055610dba565b6001600160a01b03821660009081526020819052604090208054820190555b816001600160a01b0316836001600160a01b03167fddf252ad1be2c89b69c2b068fc378daa952ba7f163c4a11628f55a4df523b3ef83604051610dff91815260200190565b60405180910390a3505050565b600060208083528351808285015260005b81811015610e3957858101830151858201604001528201610e1d565b506000604082860101526040601f19601f8301168501019250505092915050565b80356001600160a01b0381168114610e7157600080fd5b919050565b60008060408385031215610e8957600080fd5b610e9283610e5a565b946020939093013593505050565b600080600060608486031215610eb557600080fd5b610ebe84610e5a565b9250610ecc60208501610e5a565b9150604084013590509250925092565b600060208284031215610eee57600080fd5b610ef782610e5a565b9392505050565b60008060408385031215610f1157600080fd5b50508035926020909101359150565b600060208284031215610f3257600080fd5b5035919050565b60008060408385031215610f4c57600080fd5b610f5583610e5a565b9150610f6360208401610e5a565b90509250929050565b600181811c90821680610f8057607f821691505b602082108103610fa057634e487b7160e01b600052602260045260246000fd5b50919050565b6020808252601d908201527f416d6f756e74206d7573742062652067726561746572207468616e2030000000604082015260600190565b600060208284031215610fef57600080fd5b81518015158114610ef757600080fd5b634e487b7160e01b600052601160045260246000fd5b60008261103257634e487b7160e01b600052601260045260246000fd5b500490565b8181038181111561042457610424610fff565b8082018082111561042457610424610fff56fea26469706673582212203448a077db68275b9756fac5bc2423d7482d0d48a0e31bf0b8b15143a958618664736f6c63430008140033",
  "linkReferences": {},
  "deployedLinkReferences": {}
}