{
  "_format": "hh-sol-artifact-1",
  "contractName": "GymCoin",
  "sourceName": "contracts/GymCoin.sol",
  "abi": [
    {
      "inputs": [
        {
          "internalType": "address",
          "name": "_userProfileAddress",
          "type": "address"
        }
      ],
      "stateMutability": "nonpayable",
      "type": "constructor"
    },
    {
      "inputs": [
        {
          "internalType": "address",
          "name": "spender",
          "type": "address"
        },
        {
          "internalType": "uint256",
          "name": "allowance",
          "type": "uint256"
        },
        {
          "internalType": "uint256",
          "name": "needed",
          "type": "uint256"
        }
      ],
      "name": "ERC20InsufficientAllowance",
      "type": "error"
    },
    {
      "inputs": [
        {
          "internalType": "address",
          "name": "sender",
          "type": "address"
        },
        {
          "internalType": "uint256",
          "name": "balance",
          "type": "uint256"
        },
        {
          "internalType": "uint256",
          "name": "needed",
          "type": "uint256"
        }
      ],
      "name": "ERC20InsufficientBalance",
      "type": "error"
    },
    {
      "inputs": [
        {
          "internalType": "address",
          "name": "approver",
          "type": "address"
        }
      ],
      "name": "ERC20InvalidApprover",
      "type": "error"
    },
    {
      "inputs": [
        {
          "internalType": "address",
          "name": "receiver",
          "type": "address"
        }
      ],
      "name": "ERC20InvalidReceiver",
      "type": "error"
    },
    {
      "inputs": [
        {
          "internalType": "address",
          "name": "sender",
          "type": "address"
        }
      ],
      "name": "ERC20InvalidSender",
      "type": "error"
    },
    {
      "inputs": [
        {
          "internalType": "address",
          "name": "spender",
          "type": "address"
        }
      ],
      "name": "ERC20InvalidSpender",
      "type": "error"
    },
    {
      "inputs": [
        {
          "internalType": "address",
          "name": "owner",
          "type": "address"
        }
      ],
      "name": "OwnableInvalidOwner",
      "type": "error"
    },
    {
      "inputs": [
        {
          "internalType": "address",
          "name": "account",
          "type": "address"
        }
      ],
      "name": "OwnableUnauthorizedAccount",
      "type": "error"
    },
    {
      "anonymous": false,
      "inputs": [
        {
          "indexed": true,
          "internalType": "address",
          "name": "owner",
          "type": "address"
        },
        {
          "indexed": true,
          "internalType": "address",
          "name": "spender",
          "type": "address"
        },
        {
          "indexed": false,
          "internalType": "uint256",
          "name": "value",
          "type": "uint256"
        }
      ],
      "name": "Approval",
      "type": "event"
    },
    {
      "anonymous": false,
      "inputs": [
        {
          "indexed": true,
          "internalType": "address",
          "name": "previousOwner",
          "type": "address"
        },
        {
          "indexed": true,
          "internalType": "address",
          "name": "newOwner",
          "type": "address"
        }
      ],
      "name": "OwnershipTransferred",
      "type": "event"
    },
    {
      "anonymous": false,
      "inputs": [
        {
          "indexed": false,
          "internalType": "uint256",
          "name": "newSellRate",
          "type": "uint256"
        },
        {
          "indexed": false,
          "internalType": "uint256",
          "name": "newBuyRate",
          "type": "uint256"
        }
      ],
      "name": "RatesUpdated",
      "type": "event"
    },
    {
      "anonymous": false,
      "inputs": [
        {
          "indexed": true,
          "internalType": "address",
          "name": "buyer",
          "type": "address"
        },
        {
          "indexed": false,
          "internalType": "uint256",
          "name": "ethAmount",
          "type": "uint256"
        },
        {
          "indexed": false,
          "internalType": "uint256",
          "name": "tokenAmount",
          "type": "uint256"
        }
      ],
      "name": "TokensPurchased",
      "type": "event"
    },
    {
      "anonymous": false,
      "inputs": [
        {
          "indexed": true,
          "internalType": "address",
          "name": "seller",
          "type": "address"
        },
        {
          "indexed": false,
          "internalType": "uint256",
          "name": "tokenAmount",
          "type": "uint256"
        },
        {
          "indexed": false,
          "internalType": "uint256",
          "name": "ethAmount",
          "type": "uint256"
        }
      ],
      "name": "TokensSold",
      "type": "event"
    },
    {
      "anonymous": false,
      "inputs": [
        {
          "indexed": true,
          "internalType": "address",
          "name": "from",
          "type": "address"
        },
        {
          "indexed": true,
          "internalType": "address",
          "name": "to",
          "type": "address"
        },
        {
          "indexed": false,
          "internalType": "uint256",
          "name": "value",
          "type": "uint256"
        }
      ],
      "name": "Transfer",
      "type": "event"
    },
    {
      "inputs": [
        {
          "internalType": "address",
          "name": "owner",
          "type": "address"
        },
        {
          "internalType": "address",
          "name": "spender",
          "type": "address"
        }
      ],
      "name": "allowance",
      "outputs": [
        {
          "internalType": "uint256",
          "name": "",
          "type": "uint256"
        }
      ],
      "stateMutability": "view",
      "type": "function"
    },
    {
      "inputs": [
        {
          "internalType": "address",
          "name": "spender",
          "type": "address"
        },
        {
          "internalType": "uint256",
          "name": "value",
          "type": "uint256"
        }
      ],
      "name": "approve",
      "outputs": [
        {
          "internalType": "bool",
          "name": "",
          "type": "bool"
        }
      ],
      "stateMutability": "nonpayable",
      "type": "function"
    },
    {
      "inputs": [
        {
          "internalType": "address",
          "name": "account",
          "type": "address"
        }
      ],
      "name": "balanceOf",
      "outputs": [
        {
          "internalType": "uint256",
          "name": "",
          "type": "uint256"
        }
      ],
      "stateMutability": "view",
      "type": "function"
    },
    {
      "inputs": [
        {
          "internalType": "uint256",
          "name": "gcAmount",
          "type": "uint256"
        }
      ],
      "name": "buy",
      "outputs": [],
      "stateMutability": "payable",
      "type": "function"
    },
    {
      "inputs": [],
      "name": "buyRate",
      "outputs": [
        {
          "internalType": "uint256",
          "name": "",
          "type": "uint256"
        }
      ],
      "stateMutability": "view",
      "type": "function"
    },
    {
      "inputs": [],
      "name": "decimals",
      "outputs": [
        {
          "internalType": "uint8",
          "name": "",
          "type": "uint8"
        }
      ],
      "stateMutability": "view",
      "type": "function"
    },
    {
      "inputs": [],
      "name": "name",
      "outputs": [
        {
          "internalType": "string",
          "name": "",
          "type": "string"
        }
      ],
      "stateMutability": "view",
      "type": "function"
    },
    {
      "inputs": [],
      "name": "owner",
      "outputs": [
        {
          "internalType": "address",
          "name": "",
          "type": "address"
        }
      ],
      "stateMutability": "view",
      "type": "function"
    },
    {
      "inputs": [],
      "name": "renounceOwnership",
      "outputs": [],
      "stateMutability": "nonpayable",
      "type": "function"
    },
    {
      "inputs": [
        {
          "internalType": "uint256",
          "name": "gcAmount",
          "type": "uint256"
        }
      ],
      "name": "sell",
      "outputs": [],
      "stateMutability": "nonpayable",
      "type": "function"
    },
    {
      "inputs": [],
      "name": "sellRate",
      "outputs": [
        {
          "internalType": "uint256",
          "name": "",
          "type": "uint256"
        }
      ],
      "stateMutability": "view",
      "type": "function"
    },
    {
      "inputs": [
        {
          "internalType": "uint256",
          "name": "_sellRate",
          "type": "uint256"
        },
        {
          "internalType": "uint256",
          "name": "_buyRate",
          "type": "uint256"
        }
      ],
      "name": "setRates",
      "outputs": [],
      "stateMutability": "nonpayable",
      "type": "function"
    },
    {
      "inputs": [],
      "name": "symbol",
      "outputs": [
        {
          "internalType": "string",
          "name": "",
          "type": "string"
        }
      ],
      "stateMutability": "view",
      "type": "function"
    },
    {
      "inputs": [],
      "name": "totalSupply",
      "outputs": [
        {
          "internalType": "uint256",
          "name": "",
          "type": "uint256"
        }
      ],
      "stateMutability": "view",
      "type": "function"
    },
    {
      "inputs": [
        {
          "internalType": "address",
          "name": "to",
          "type": "address"
        },
        {
          "internalType": "uint256",
          "name": "value",
          "type": "uint256"
        }
      ],
      "name": "transfer",
      "outputs": [
        {
          "internalType": "bool",
          "name": "",
          "type": "bool"
        }
      ],
      "stateMutability": "nonpayable",
      "type": "function"
    },
    {
      "inputs": [
        {
          "internalType": "address",
          "name": "from",
          "type": "address"
        },
        {
          "internalType": "address",
          "name": "to",
          "type": "address"
        },
        {
          "internalType": "uint256",
          "name": "value",
          "type": "uint256"
        }
      ],
      "name": "transferFrom",
      "outputs": [
        {
          "internalType": "bool",
          "name": "",
          "type": "bool"
        }
      ],
      "stateMutability": "nonpayable",
      "type": "function"
    },
    {
      "inputs": [
        {
          "internalType": "address",
          "name": "newOwner",
          "type": "address"
        }
      ],
      "name": "transferOwnership",
      "outputs": [],
      "stateMutability": "nonpayable",
      "type": "function"
    },
    {
      "stateMutability": "payable",
      "type": "receive"
    }
  ],
  "bytecode": "0x60806040523480156200001157600080fd5b506040516200297f3803806200297f8339818101604052810190620000379190620005de565b336040518060400160405280600881526020017f47796d20436f696e0000000000000000000000000000000000000000000000008152506040518060400160405280600281526020017f47430000000000000000000000000000000000000000000000000000000000008152508160039081620000b591906200088a565b508060049081620000c791906200088a565b505050600073ffffffffffffffffffffffffffffffffffffffff168173ffffffffffffffffffffffffffffffffffffffff16036200013f5760006040517f1e4fbdf700000000000000000000000000000000000000000000000000000000815260040162000136919062000982565b60405180910390fd5b6200015081620001e860201b60201c565b5080600660006101000a81548173ffffffffffffffffffffffffffffffffffffffff021916908373ffffffffffffffffffffffffffffffffffffffff160217905550606460078190555060c8600881905550620001e133620001b7620002ae60201b60201c565b600a620001c5919062000b2f565b620f4240620001d5919062000b80565b620002b760201b60201c565b5062000c71565b6000600560009054906101000a900473ffffffffffffffffffffffffffffffffffffffff16905081600560006101000a81548173ffffffffffffffffffffffffffffffffffffffff021916908373ffffffffffffffffffffffffffffffffffffffff1602179055508173ffffffffffffffffffffffffffffffffffffffff168173ffffffffffffffffffffffffffffffffffffffff167f8be0079c531659141344cd1fd0a4f28419497f9722a3daafe3b4186f6b6457e060405160405180910390a35050565b60006012905090565b600073ffffffffffffffffffffffffffffffffffffffff168273ffffffffffffffffffffffffffffffffffffffff16036200032c5760006040517fec442f0500000000000000000000000000000000000000000000000000000000815260040162000323919062000982565b60405180910390fd5b62000340600083836200034460201b60201c565b5050565b600073ffffffffffffffffffffffffffffffffffffffff168373ffffffffffffffffffffffffffffffffffffffff16036200039a5780600260008282546200038d919062000bcb565b9250508190555062000470565b60008060008573ffffffffffffffffffffffffffffffffffffffff1673ffffffffffffffffffffffffffffffffffffffff1681526020019081526020016000205490508181101562000429578381836040517fe450d38c000000000000000000000000000000000000000000000000000000008152600401620004209392919062000c17565b60405180910390fd5b8181036000808673ffffffffffffffffffffffffffffffffffffffff1673ffffffffffffffffffffffffffffffffffffffff16815260200190815260200160002081905550505b600073ffffffffffffffffffffffffffffffffffffffff168273ffffffffffffffffffffffffffffffffffffffff1603620004bb578060026000828254039250508190555062000508565b806000808473ffffffffffffffffffffffffffffffffffffffff1673ffffffffffffffffffffffffffffffffffffffff168152602001908152602001600020600082825401925050819055505b8173ffffffffffffffffffffffffffffffffffffffff168373ffffffffffffffffffffffffffffffffffffffff167fddf252ad1be2c89b69c2b068fc378daa952ba7f163c4a11628f55a4df523b3ef8360405162000567919062000c54565b60405180910390a3505050565b600080fd5b600073ffffffffffffffffffffffffffffffffffffffff82169050919050565b6000620005a68262000579565b9050919050565b620005b88162000599565b8114620005c457600080fd5b50565b600081519050620005d881620005ad565b92915050565b600060208284031215620005f757620005f662000574565b5b60006200060784828501620005c7565b91505092915050565b600081519050919050565b7f4e487b7100000000000000000000000000000000000000000000000000000000600052604160045260246000fd5b7f4e487b7100000000000000000000000000000000000000000000000000000000600052602260045260246000fd5b600060028204905060018216806200069257607f821691505b602082108103620006a857620006a76200064a565b5b50919050565b60008190508160005260206000209050919050565b60006020601f8301049050919050565b600082821b905092915050565b600060088302620007127fffffffffffffffffffffffffffffffffffffffffffffffffffffffffffffffff82620006d3565b6200071e8683620006d3565b95508019841693508086168417925050509392505050565b6000819050919050565b6000819050919050565b60006200076b620007656200075f8462000736565b62000740565b62000736565b9050919050565b6000819050919050565b62000787836200074a565b6200079f620007968262000772565b848454620006e0565b825550505050565b600090565b620007b6620007a7565b620007c38184846200077c565b505050565b5b81811015620007eb57620007df600082620007ac565b600181019050620007c9565b5050565b601f8211156200083a576200080481620006ae565b6200080f84620006c3565b810160208510156200081f578190505b620008376200082e85620006c3565b830182620007c8565b50505b505050565b600082821c905092915050565b60006200085f600019846008026200083f565b1980831691505092915050565b60006200087a83836200084c565b9150826002028217905092915050565b620008958262000610565b67ffffffffffffffff811115620008b157620008b06200061b565b5b620008bd825462000679565b620008ca828285620007ef565b600060209050601f831160018114620009025760008415620008ed578287015190505b620008f985826200086c565b86555062000969565b601f1984166200091286620006ae565b60005b828110156200093c5784890151825560018201915060208501945060208101905062000915565b868310156200095c578489015162000958601f8916826200084c565b8355505b6001600288020188555050505b505050505050565b6200097c8162000599565b82525050565b600060208201905062000999600083018462000971565b92915050565b7f4e487b7100000000000000000000000000000000000000000000000000000000600052601160045260246000fd5b60008160011c9050919050565b6000808291508390505b600185111562000a2d5780860481111562000a055762000a046200099f565b5b600185161562000a155780820291505b808102905062000a2585620009ce565b9450620009e5565b94509492505050565b60008262000a48576001905062000b1b565b8162000a58576000905062000b1b565b816001811462000a71576002811462000a7c5762000ab2565b600191505062000b1b565b60ff84111562000a915762000a906200099f565b5b8360020a91508482111562000aab5762000aaa6200099f565b5b5062000b1b565b5060208310610133831016604e8410600b841016171562000aec5782820a90508381111562000ae65762000ae56200099f565b5b62000b1b565b62000afb8484846001620009db565b9250905081840481111562000b155762000b146200099f565b5b81810290505b9392505050565b600060ff82169050919050565b600062000b3c8262000736565b915062000b498362000b22565b925062000b787fffffffffffffffffffffffffffffffffffffffffffffffffffffffffffffffff848462000a36565b905092915050565b600062000b8d8262000736565b915062000b9a8362000736565b925082820262000baa8162000736565b9150828204841483151762000bc45762000bc36200099f565b5b5092915050565b600062000bd88262000736565b915062000be58362000736565b925082820190508082111562000c005762000bff6200099f565b5b92915050565b62000c118162000736565b82525050565b600060608201905062000c2e600083018662000971565b62000c3d602083018562000c06565b62000c4c604083018462000c06565b949350505050565b600060208201905062000c6b600083018462000c06565b92915050565b611cfe8062000c816000396000f3fe6080604052600436106101025760003560e01c80638da5cb5b11610095578063d96a094a11610064578063d96a094a14610344578063dd62ed3e14610360578063e4849b321461039d578063f2fde38b146103c6578063fc37987b146103ef57610109565b80638da5cb5b1461028857806395d89b41146102b3578063a9059cbb146102de578063ac6af2801461031b57610109565b8063313ce567116100d1578063313ce567146101de5780636217229b1461020957806370a0823114610234578063715018a61461027157610109565b806306fdde031461010e578063095ea7b31461013957806318160ddd1461017657806323b872dd146101a157610109565b3661010957005b600080fd5b34801561011a57600080fd5b5061012361041a565b6040516101309190611499565b60405180910390f35b34801561014557600080fd5b50610160600480360381019061015b9190611554565b6104ac565b60405161016d91906115af565b60405180910390f35b34801561018257600080fd5b5061018b6104cf565b60405161019891906115d9565b60405180910390f35b3480156101ad57600080fd5b506101c860048036038101906101c391906115f4565b6104d9565b6040516101d591906115af565b60405180910390f35b3480156101ea57600080fd5b506101f3610508565b6040516102009190611663565b60405180910390f35b34801561021557600080fd5b5061021e610511565b60405161022b91906115d9565b60405180910390f35b34801561024057600080fd5b5061025b6004803603810190610256919061167e565b610517565b60405161026891906115d9565b60405180910390f35b34801561027d57600080fd5b5061028661055f565b005b34801561029457600080fd5b5061029d610573565b6040516102aa91906116ba565b60405180910390f35b3480156102bf57600080fd5b506102c861059d565b6040516102d59190611499565b60405180910390f35b3480156102ea57600080fd5b5061030560048036038101906103009190611554565b61062f565b60405161031291906115af565b60405180910390f35b34801561032757600080fd5b50610342600480360381019061033d91906116d5565b610652565b005b61035e60048036038101906103599190611715565b6106f4565b005b34801561036c57600080fd5b5061038760048036038101906103829190611742565b61098c565b60405161039491906115d9565b60405180910390f35b3480156103a957600080fd5b506103c460048036038101906103bf9190611715565b610a13565b005b3480156103d257600080fd5b506103ed60048036038101906103e8919061167e565b610c91565b005b3480156103fb57600080fd5b50610404610d17565b60405161041191906115d9565b60405180910390f35b606060038054610429906117b1565b80601f0160208091040260200160405190810160405280929190818152602001828054610455906117b1565b80156104a25780601f10610477576101008083540402835291602001916104a2565b820191906000526020600020905b81548152906001019060200180831161048557829003601f168201915b5050505050905090565b6000806104b7610d1d565b90506104c4818585610d25565b600191505092915050565b6000600254905090565b6000806104e4610d1d565b90506104f1858285610d37565b6104fc858585610dcc565b60019150509392505050565b60006012905090565b60075481565b60008060008373ffffffffffffffffffffffffffffffffffffffff1673ffffffffffffffffffffffffffffffffffffffff168152602001908152602001600020549050919050565b610567610ec0565b6105716000610f47565b565b6000600560009054906101000a900473ffffffffffffffffffffffffffffffffffffffff16905090565b6060600480546105ac906117b1565b80601f01602080910402602001604051908101604052809291908181526020018280546105d8906117b1565b80156106255780601f106105fa57610100808354040283529160200191610625565b820191906000526020600020905b81548152906001019060200180831161060857829003601f168201915b5050505050905090565b60008061063a610d1d565b9050610647818585610dcc565b600191505092915050565b61065a610ec0565b60008211801561066a5750600081115b6106a9576040517f08c379a00000000000000000000000000000000000000000000000000000000081526004016106a09061182e565b60405180910390fd5b81600781905550806008819055507f0cf6ce3db485f79e960e63b1550af071fe0c99c09834149273e0fa8b32018ff882826040516106e892919061184e565b60405180910390a15050565b60008111610737576040517f08c379a000000000000000000000000000000000000000000000000000000000815260040161072e906118c3565b60405180910390fd5b600660009054906101000a900473ffffffffffffffffffffffffffffffffffffffff1673ffffffffffffffffffffffffffffffffffffffff1663163f7522336040518263ffffffff1660e01b815260040161079291906116ba565b602060405180830381865afa1580156107af573d6000803e3d6000fd5b505050506040513d601f19601f820116820180604052508101906107d3919061190f565b610812576040517f08c379a000000000000000000000000000000000000000000000000000000000815260040161080990611988565b60405180910390fd5b6000600754670de0b6b3a76400008361082b91906119d7565b6108359190611a48565b90508034101561087a576040517f08c379a000000000000000000000000000000000000000000000000000000000815260040161087190611ac5565b60405180910390fd5b6000610884610573565b90508261089082610517565b10156108d1576040517f08c379a00000000000000000000000000000000000000000000000000000000081526004016108c890611b31565b60405180910390fd5b6108dc813385610dcc565b81341115610937573373ffffffffffffffffffffffffffffffffffffffff166108fc833461090a9190611b51565b9081150290604051600060405180830381858888f19350505050158015610935573d6000803e3d6000fd5b505b3373ffffffffffffffffffffffffffffffffffffffff167f8fafebcaf9d154343dad25669bfa277f4fbacd7ac6b0c4fed522580e040a0f33838560405161097f92919061184e565b60405180910390a2505050565b6000600160008473ffffffffffffffffffffffffffffffffffffffff1673ffffffffffffffffffffffffffffffffffffffff16815260200190815260200160002060008373ffffffffffffffffffffffffffffffffffffffff1673ffffffffffffffffffffffffffffffffffffffff16815260200190815260200160002054905092915050565b60008111610a56576040517f08c379a0000000000000000000000000000000000000000000000000000000008152600401610a4d906118c3565b60405180910390fd5b600660009054906101000a900473ffffffffffffffffffffffffffffffffffffffff1673ffffffffffffffffffffffffffffffffffffffff1663163f7522336040518263ffffffff1660e01b8152600401610ab191906116ba565b602060405180830381865afa158015610ace573d6000803e3d6000fd5b505050506040513d601f19601f82011682018060405250810190610af2919061190f565b610b31576040517f08c379a0000000000000000000000000000000000000000000000000000000008152600401610b2890611988565b60405180910390fd5b80610b3b33610517565b1015610b7c576040517f08c379a0000000000000000000000000000000000000000000000000000000008152600401610b7390611bd1565b60405180910390fd5b6000600854670de0b6b3a764000083610b9591906119d7565b610b9f9190611a48565b905080471015610be4576040517f08c379a0000000000000000000000000000000000000000000000000000000008152600401610bdb90611c3d565b60405180910390fd5b610bf633610bf0610573565b84610dcc565b3373ffffffffffffffffffffffffffffffffffffffff166108fc829081150290604051600060405180830381858888f19350505050158015610c3c573d6000803e3d6000fd5b503373ffffffffffffffffffffffffffffffffffffffff167f2dcf9433d75db0d8b1c172641f85e319ffe4ad22e108a95d1847ceb906e5195d8383604051610c8592919061184e565b60405180910390a25050565b610c99610ec0565b600073ffffffffffffffffffffffffffffffffffffffff168173ffffffffffffffffffffffffffffffffffffffff1603610d0b5760006040517f1e4fbdf7000000000000000000000000000000000000000000000000000000008152600401610d0291906116ba565b60405180910390fd5b610d1481610f47565b50565b60085481565b600033905090565b610d32838383600161100d565b505050565b6000610d43848461098c565b90507fffffffffffffffffffffffffffffffffffffffffffffffffffffffffffffffff811015610dc65781811015610db6578281836040517ffb8f41b2000000000000000000000000000000000000000000000000000000008152600401610dad93929190611c5d565b60405180910390fd5b610dc58484848403600061100d565b5b50505050565b600073ffffffffffffffffffffffffffffffffffffffff168373ffffffffffffffffffffffffffffffffffffffff1603610e3e5760006040517f96c6fd1e000000000000000000000000000000000000000000000000000000008152600401610e3591906116ba565b60405180910390fd5b600073ffffffffffffffffffffffffffffffffffffffff168273ffffffffffffffffffffffffffffffffffffffff1603610eb05760006040517fec442f05000000000000000000000000000000000000000000000000000000008152600401610ea791906116ba565b60405180910390fd5b610ebb8383836111e4565b505050565b610ec8610d1d565b73ffffffffffffffffffffffffffffffffffffffff16610ee6610573565b73ffffffffffffffffffffffffffffffffffffffff1614610f4557610f09610d1d565b6040517f118cdaa7000000000000000000000000000000000000000000000000000000008152600401610f3c91906116ba565b60405180910390fd5b565b6000600560009054906101000a900473ffffffffffffffffffffffffffffffffffffffff16905081600560006101000a81548173ffffffffffffffffffffffffffffffffffffffff021916908373ffffffffffffffffffffffffffffffffffffffff1602179055508173ffffffffffffffffffffffffffffffffffffffff168173ffffffffffffffffffffffffffffffffffffffff167f8be0079c531659141344cd1fd0a4f28419497f9722a3daafe3b4186f6b6457e060405160405180910390a35050565b600073ffffffffffffffffffffffffffffffffffffffff168473ffffffffffffffffffffffffffffffffffffffff160361107f5760006040517fe602df0500000000000000000000000000000000000000000000000000000000815260040161107691906116ba565b60405180910390fd5b600073ffffffffffffffffffffffffffffffffffffffff168373ffffffffffffffffffffffffffffffffffffffff16036110f15760006040517f94280d620000000000000000000000000000000000000000000000000000000081526004016110e891906116ba565b60405180910390fd5b81600160008673ffffffffffffffffffffffffffffffffffffffff1673ffffffffffffffffffffffffffffffffffffffff16815260200190815260200160002060008573ffffffffffffffffffffffffffffffffffffffff1673ffffffffffffffffffffffffffffffffffffffff1681526020019081526020016000208190555080156111de578273ffffffffffffffffffffffffffffffffffffffff168473ffffffffffffffffffffffffffffffffffffffff167f8c5be1e5ebec7d5bd14f71427d1e84f3dd0314c0f7b2291e5b200ac8c7c3b925846040516111d591906115d9565b60405180910390a35b50505050565b600073ffffffffffffffffffffffffffffffffffffffff168373ffffffffffffffffffffffffffffffffffffffff160361123657806002600082825461122a9190611c94565b92505081905550611309565b60008060008573ffffffffffffffffffffffffffffffffffffffff1673ffffffffffffffffffffffffffffffffffffffff168152602001908152602001600020549050818110156112c2578381836040517fe450d38c0000000000000000000000000000000000000000000000000000000081526004016112b993929190611c5d565b60405180910390fd5b8181036000808673ffffffffffffffffffffffffffffffffffffffff1673ffffffffffffffffffffffffffffffffffffffff16815260200190815260200160002081905550505b600073ffffffffffffffffffffffffffffffffffffffff168273ffffffffffffffffffffffffffffffffffffffff1603611352578060026000828254039250508190555061139f565b806000808473ffffffffffffffffffffffffffffffffffffffff1673ffffffffffffffffffffffffffffffffffffffff168152602001908152602001600020600082825401925050819055505b8173ffffffffffffffffffffffffffffffffffffffff168373ffffffffffffffffffffffffffffffffffffffff167fddf252ad1be2c89b69c2b068fc378daa952ba7f163c4a11628f55a4df523b3ef836040516113fc91906115d9565b60405180910390a3505050565b600081519050919050565b600082825260208201905092915050565b60005b83811015611443578082015181840152602081019050611428565b60008484015250505050565b6000601f19601f8301169050919050565b600061146b82611409565b6114758185611414565b9350611485818560208601611425565b61148e8161144f565b840191505092915050565b600060208201905081810360008301526114b38184611460565b905092915050565b600080fd5b600073ffffffffffffffffffffffffffffffffffffffff82169050919050565b60006114eb826114c0565b9050919050565b6114fb816114e0565b811461150657600080fd5b50565b600081359050611518816114f2565b92915050565b6000819050919050565b6115318161151e565b811461153c57600080fd5b50565b60008135905061154e81611528565b92915050565b6000806040838503121561156b5761156a6114bb565b5b600061157985828601611509565b925050602061158a8582860161153f565b9150509250929050565b60008115159050919050565b6115a981611594565b82525050565b60006020820190506115c460008301846115a0565b92915050565b6115d38161151e565b82525050565b60006020820190506115ee60008301846115ca565b92915050565b60008060006060848603121561160d5761160c6114bb565b5b600061161b86828701611509565b935050602061162c86828701611509565b925050604061163d8682870161153f565b9150509250925092565b600060ff82169050919050565b61165d81611647565b82525050565b60006020820190506116786000830184611654565b92915050565b600060208284031215611694576116936114bb565b5b60006116a284828501611509565b91505092915050565b6116b4816114e0565b82525050565b60006020820190506116cf60008301846116ab565b92915050565b600080604083850312156116ec576116eb6114bb565b5b60006116fa8582860161153f565b925050602061170b8582860161153f565b9150509250929050565b60006020828403121561172b5761172a6114bb565b5b60006117398482850161153f565b91505092915050565b60008060408385031215611759576117586114bb565b5b600061176785828601611509565b925050602061177885828601611509565b9150509250929050565b7f4e487b7100000000000000000000000000000000000000000000000000000000600052602260045260246000fd5b600060028204905060018216806117c957607f821691505b6020821081036117dc576117db611782565b5b50919050565b7f5261746573206d7573742062652067726561746572207468616e203000000000600082015250565b6000611818601c83611414565b9150611823826117e2565b602082019050919050565b600060208201905081810360008301526118478161180b565b9050919050565b600060408201905061186360008301856115ca565b61187060208301846115ca565b9392505050565b7f416d6f756e74206d7573742062652067726561746572207468616e2030000000600082015250565b60006118ad601d83611414565b91506118b882611877565b602082019050919050565b600060208201905081810360008301526118dc816118a0565b9050919050565b6118ec81611594565b81146118f757600080fd5b50565b600081519050611909816118e3565b92915050565b600060208284031215611925576119246114bb565b5b6000611933848285016118fa565b91505092915050565b7f55736572206e6f74207265676973746572656400000000000000000000000000600082015250565b6000611972601383611414565b915061197d8261193c565b602082019050919050565b600060208201905081810360008301526119a181611965565b9050919050565b7f4e487b7100000000000000000000000000000000000000000000000000000000600052601160045260246000fd5b60006119e28261151e565b91506119ed8361151e565b92508282026119fb8161151e565b91508282048414831517611a1257611a116119a8565b5b5092915050565b7f4e487b7100000000000000000000000000000000000000000000000000000000600052601260045260246000fd5b6000611a538261151e565b9150611a5e8361151e565b925082611a6e57611a6d611a19565b5b828204905092915050565b7f496e73756666696369656e74204554482073656e740000000000000000000000600082015250565b6000611aaf601583611414565b9150611aba82611a79565b602082019050919050565b60006020820190508181036000830152611ade81611aa2565b9050919050565b7f4f776e65722068617320696e73756666696369656e7420746f6b656e73000000600082015250565b6000611b1b601d83611414565b9150611b2682611ae5565b602082019050919050565b60006020820190508181036000830152611b4a81611b0e565b9050919050565b6000611b5c8261151e565b9150611b678361151e565b9250828203905081811115611b7f57611b7e6119a8565b5b92915050565b7f496e73756666696369656e7420746f6b656e2062616c616e6365000000000000600082015250565b6000611bbb601a83611414565b9150611bc682611b85565b602082019050919050565b60006020820190508181036000830152611bea81611bae565b9050919050565b7f436f6e74726163742068617320696e73756666696369656e7420455448000000600082015250565b6000611c27601d83611414565b9150611c3282611bf1565b602082019050919050565b60006020820190508181036000830152611c5681611c1a565b9050919050565b6000606082019050611c7260008301866116ab565b611c7f60208301856115ca565b611c8c60408301846115ca565b949350505050565b6000611c9f8261151e565b9150611caa8361151e565b9250828201905080821115611cc257611cc16119a8565b5b9291505056fea26469706673582212206d7565186a723802386631c09e3eafe45bcaa0446859d04b745b8d0babbf718364736f6c63430008140033",
  "linkReferences": {},
  "deployedLinkReferences": {}
}