{
  "_format": "hh-sol-artifact-1",
  "contractName": "GymCoin",
  "sourceName": "contracts/GymCoin.sol",
  "abi": [
    {
      "inputs": [
        {
          "internalType": "address",
          "name": "_userProfileAddress",
          "type": "address"
        }
      ],
      "stateMutability": "nonpayable",
      "type": "constructor"
    },
    {
      "inputs": [
        {
          "internalType": "address",
          "name": "spender",
          "type": "address"
        },
        {
          "internalType": "uint256",
          "name": "allowance",
          "type": "uint256"
        },
        {
          "internalType": "uint256",
          "name": "needed",
          "type": "uint256"
        }
      ],
      "name": "ERC20InsufficientAllowance",
      "type": "error"
    },
    {
      "inputs": [
        {
          "internalType": "address",
          "name": "sender",
          "type": "address"
        },
        {
          "internalType": "uint256",
          "name": "balance",
          "type": "uint256"
        },
        {
          "internalType": "uint256",
          "name": "needed",
          "type": "uint256"
        }
      ],
      "name": "ERC20InsufficientBalance",
      "type": "error"
    },
    {
      "inputs": [
        {
          "internalType": "address",
          "name": "approver",
          "type": "address"
        }
      ],
      "name": "ERC20InvalidApprover",
      "type": "error"
    },
    {
      "inputs": [
        {
          "internalType": "address",
          "name": "receiver",
          "type": "address"
        }
      ],
      "name": "ERC20InvalidReceiver",
      "type": "error"
    },
    {
      "inputs": [
        {
          "internalType": "address",
          "name": "sender",
          "type": "address"
        }
      ],
      "name": "ERC20InvalidSender",
      "type": "error"
    },
    {
      "inputs": [
        {
          "internalType": "address",
          "name": "spender",
          "type": "address"
        }
      ],
      "name": "ERC20InvalidSpender",
      "type": "error"
    },
    {
      "inputs": [
        {
          "internalType": "address",
          "name": "owner",
          "type": "address"
        }
      ],
      "name": "OwnableInvalidOwner",
      "type": "error"
    },
    {
      "inputs": [
        {
          "internalType": "address",
          "name": "account",
          "type": "address"
        }
      ],
      "name": "OwnableUnauthorizedAccount",
      "type": "error"
    },
    {
      "anonymous": false,
      "inputs": [
        {
          "indexed": true,
          "internalType": "address",
          "name": "owner",
          "type": "address"
        },
        {
          "indexed": true,
          "internalType": "address",
          "name": "spender",
          "type": "address"
        },
        {
          "indexed": false,
          "internalType": "uint256",
          "name": "value",
          "type": "uint256"
        }
      ],
      "name": "Approval",
      "type": "event"
    },
    {
      "anonymous": false,
      "inputs": [
        {
          "indexed": true,
          "internalType": "address",
          "name": "previousOwner",
          "type": "address"
        },
        {
          "indexed": true,
          "internalType": "address",
          "name": "newOwner",
          "type": "address"
        }
      ],
      "name": "OwnershipTransferred",
      "type": "event"
    },
    {
      "anonymous": false,
      "inputs": [
        {
          "indexed": false,
          "internalType": "uint256",
          "name": "newSellRate",
          "type": "uint256"
        },
        {
          "indexed": false,
          "internalType": "uint256",
          "name": "newBuyRate",
          "type": "uint256"
        }
      ],
      "name": "RatesUpdated",
      "type": "event"
    },
    {
      "anonymous": false,
      "inputs": [
        {
          "indexed": true,
          "internalType": "address",
          "name": "buyer",
          "type": "address"
        },
        {
          "indexed": false,
          "internalType": "uint256",
          "name": "ethAmount",
          "type": "uint256"
        },
        {
          "indexed": false,
          "internalType": "uint256",
          "name": "tokenAmount",
          "type": "uint256"
        }
      ],
      "name": "TokensPurchased",
      "type": "event"
    },
    {
      "anonymous": false,
      "inputs": [
        {
          "indexed": true,
          "internalType": "address",
          "name": "seller",
          "type": "address"
        },
        {
          "indexed": false,
          "internalType": "uint256",
          "name": "tokenAmount",
          "type": "uint256"
        },
        {
          "indexed": false,
          "internalType": "uint256",
          "name": "ethAmount",
          "type": "uint256"
        }
      ],
      "name": "TokensSold",
      "type": "event"
    },
    {
      "anonymous": false,
      "inputs": [
        {
          "indexed": true,
          "internalType": "address",
          "name": "from",
          "type": "address"
        },
        {
          "indexed": true,
          "internalType": "address",
          "name": "to",
          "type": "address"
        },
        {
          "indexed": false,
          "internalType": "uint256",
          "name": "value",
          "type": "uint256"
        }
      ],
      "name": "Transfer",
      "type": "event"
    },
    {
      "inputs": [
        {
          "internalType": "address",
          "name": "owner",
          "type": "address"
        },
        {
          "internalType": "address",
          "name": "spender",
          "type": "address"
        }
      ],
      "name": "allowance",
      "outputs": [
        {
          "internalType": "uint256",
          "name": "",
          "type": "uint256"
        }
      ],
      "stateMutability": "view",
      "type": "function"
    },
    {
      "inputs": [
        {
          "internalType": "address",
          "name": "spender",
          "type": "address"
        },
        {
          "internalType": "uint256",
          "name": "value",
          "type": "uint256"
        }
      ],
      "name": "approve",
      "outputs": [
        {
          "internalType": "bool",
          "name": "",
          "type": "bool"
        }
      ],
      "stateMutability": "nonpayable",
      "type": "function"
    },
    {
      "inputs": [
        {
          "internalType": "address",
          "name": "account",
          "type": "address"
        }
      ],
      "name": "balanceOf",
      "outputs": [
        {
          "internalType": "uint256",
          "name": "",
          "type": "uint256"
        }
      ],
      "stateMutability": "view",
      "type": "function"
    },
    {
      "inputs": [
        {
          "internalType": "uint256",
          "name": "gcAmount",
          "type": "uint256"
        }
      ],
      "name": "buy",
      "outputs": [],
      "stateMutability": "payable",
      "type": "function"
    },
    {
      "inputs": [],
      "name": "buyRate",
      "outputs": [
        {
          "internalType": "uint256",
          "name": "",
          "type": "uint256"
        }
      ],
      "stateMutability": "view",
      "type": "function"
    },
    {
      "inputs": [],
      "name": "decimals",
      "outputs": [
        {
          "internalType": "uint8",
          "name": "",
          "type": "uint8"
        }
      ],
      "stateMutability": "view",
      "type": "function"
    },
    {
      "inputs": [],
      "name": "name",
      "outputs": [
        {
          "internalType": "string",
          "name": "",
          "type": "string"
        }
      ],
      "stateMutability": "view",
      "type": "function"
    },
    {
      "inputs": [],
      "name": "owner",
      "outputs": [
        {
          "internalType": "address",
          "name": "",
          "type": "address"
        }
      ],
      "stateMutability": "view",
      "type": "function"
    },
    {
      "inputs": [],
      "name": "renounceOwnership",
      "outputs": [],
      "stateMutability": "nonpayable",
      "type": "function"
    },
    {
      "inputs": [
        {
          "internalType": "uint256",
          "name": "gcAmount",
          "type": "uint256"
        }
      ],
      "name": "sell",
      "outputs": [],
      "stateMutability": "nonpayable",
      "type": "function"
    },
    {
      "inputs": [],
      "name": "sellRate",
      "outputs": [
        {
          "internalType": "uint256",
          "name": "",
          "type": "uint256"
        }
      ],
      "stateMutability": "view",
      "type": "function"
    },
    {
      "inputs": [
        {
          "internalType": "uint256",
          "name": "_sellRate",
          "type": "uint256"
        },
        {
          "internalType": "uint256",
          "name": "_buyRate",
          "type": "uint256"
        }
      ],
      "name": "setRates",
      "outputs": [],
      "stateMutability": "nonpayable",
      "type": "function"
    },
    {
      "inputs": [],
      "name": "symbol",
      "outputs": [
        {
          "internalType": "string",
          "name": "",
          "type": "string"
        }
      ],
      "stateMutability": "view",
      "type": "function"
    },
    {
      "inputs": [],
      "name": "totalSupply",
      "outputs": [
        {
          "internalType": "uint256",
          "name": "",
          "type": "uint256"
        }
      ],
      "stateMutability": "view",
      "type": "function"
    },
    {
      "inputs": [
        {
          "internalType": "address",
          "name": "to",
          "type": "address"
        },
        {
          "internalType": "uint256",
          "name": "value",
          "type": "uint256"
        }
      ],
      "name": "transfer",
      "outputs": [
        {
          "internalType": "bool",
          "name": "",
          "type": "bool"
        }
      ],
      "stateMutability": "nonpayable",
      "type": "function"
    },
    {
      "inputs": [
        {
          "internalType": "address",
          "name": "from",
          "type": "address"
        },
        {
          "internalType": "address",
          "name": "to",
          "type": "address"
        },
        {
          "internalType": "uint256",
          "name": "value",
          "type": "uint256"
        }
      ],
      "name": "transferFrom",
      "outputs": [
        {
          "internalType": "bool",
          "name": "",
          "type": "bool"
        }
      ],
      "stateMutability": "nonpayable",
      "type": "function"
    },
    {
      "inputs": [
        {
          "internalType": "address",
          "name": "newOwner",
          "type": "address"
        }
      ],
      "name": "transferOwnership",
      "outputs": [],
      "stateMutability": "nonpayable",
      "type": "function"
    },
    {
      "stateMutability": "payable",
      "type": "receive"
    }
  ],
  "bytecode": "0x60806040523480156200001157600080fd5b50604051620015e2380380620015e28339810160408190526200003491620002ef565b336040518060400160405280600881526020016723bcb69021b7b4b760c11b81525060405180604001604052806002815260200161474360f01b8152508160039081620000829190620003c6565b506004620000918282620003c6565b5050506001600160a01b038116620000c457604051631e4fbdf760e01b8152600060048201526024015b60405180910390fd5b620000cf816200012c565b50600680546001600160a01b0319166001600160a01b038316179055606460075560c8600855620001253362000103601290565b6200011090600a620005a7565b6200011f90620f4240620005b8565b6200017e565b50620005e8565b600580546001600160a01b038381166001600160a01b0319831681179093556040519116919082907f8be0079c531659141344cd1fd0a4f28419497f9722a3daafe3b4186f6b6457e090600090a35050565b6001600160a01b038216620001aa5760405163ec442f0560e01b815260006004820152602401620000bb565b620001b860008383620001bc565b5050565b6001600160a01b038316620001eb578060026000828254620001df9190620005d2565b909155506200025f9050565b6001600160a01b03831660009081526020819052604090205481811015620002405760405163391434e360e21b81526001600160a01b03851660048201526024810182905260448101839052606401620000bb565b6001600160a01b03841660009081526020819052604090209082900390555b6001600160a01b0382166200027d576002805482900390556200029c565b6001600160a01b03821660009081526020819052604090208054820190555b816001600160a01b0316836001600160a01b03167fddf252ad1be2c89b69c2b068fc378daa952ba7f163c4a11628f55a4df523b3ef83604051620002e291815260200190565b60405180910390a3505050565b6000602082840312156200030257600080fd5b81516001600160a01b03811681146200031a57600080fd5b9392505050565b634e487b7160e01b600052604160045260246000fd5b600181811c908216806200034c57607f821691505b6020821081036200036d57634e487b7160e01b600052602260045260246000fd5b50919050565b601f821115620003c157600081815260208120601f850160051c810160208610156200039c5750805b601f850160051c820191505b81811015620003bd57828155600101620003a8565b5050505b505050565b81516001600160401b03811115620003e257620003e262000321565b620003fa81620003f3845462000337565b8462000373565b602080601f831160018114620004325760008415620004195750858301515b600019600386901b1c1916600185901b178555620003bd565b600085815260208120601f198616915b82811015620004635788860151825594840194600190910190840162000442565b5085821015620004825787850151600019600388901b60f8161c191681555b5050505050600190811b01905550565b634e487b7160e01b600052601160045260246000fd5b600181815b80851115620004e9578160001904821115620004cd57620004cd62000492565b80851615620004db57918102915b93841c9390800290620004ad565b509250929050565b6000826200050257506001620005a1565b816200051157506000620005a1565b81600181146200052a5760028114620005355762000555565b6001915050620005a1565b60ff84111562000549576200054962000492565b50506001821b620005a1565b5060208310610133831016604e8410600b84101617156200057a575081810a620005a1565b620005868383620004a8565b80600019048211156200059d576200059d62000492565b0290505b92915050565b60006200031a60ff841683620004f1565b8082028115828204841417620005a157620005a162000492565b80820180821115620005a157620005a162000492565b610fea80620005f86000396000f3fe6080604052600436106101025760003560e01c80638da5cb5b11610095578063d96a094a11610064578063d96a094a146102a4578063dd62ed3e146102b7578063e4849b32146102fd578063f2fde38b1461031d578063fc37987b1461033d57600080fd5b80638da5cb5b1461022757806395d89b411461024f578063a9059cbb14610264578063ac6af2801461028457600080fd5b8063313ce567116100d1578063313ce567146101a85780636217229b146101c457806370a08231146101da578063715018a61461021057600080fd5b806306fdde031461010e578063095ea7b31461013957806318160ddd1461016957806323b872dd1461018857600080fd5b3661010957005b600080fd5b34801561011a57600080fd5b50610123610353565b6040516101309190610d83565b60405180910390f35b34801561014557600080fd5b50610159610154366004610ded565b6103e5565b6040519015158152602001610130565b34801561017557600080fd5b506002545b604051908152602001610130565b34801561019457600080fd5b506101596101a3366004610e17565b6103ff565b3480156101b457600080fd5b5060405160128152602001610130565b3480156101d057600080fd5b5061017a60075481565b3480156101e657600080fd5b5061017a6101f5366004610e53565b6001600160a01b031660009081526020819052604090205490565b34801561021c57600080fd5b50610225610423565b005b34801561023357600080fd5b506005546040516001600160a01b039091168152602001610130565b34801561025b57600080fd5b50610123610437565b34801561027057600080fd5b5061015961027f366004610ded565b610446565b34801561029057600080fd5b5061022561029f366004610e75565b610454565b6102256102b2366004610e97565b610504565b3480156102c357600080fd5b5061017a6102d2366004610eb0565b6001600160a01b03918216600090815260016020908152604080832093909416825291909152205490565b34801561030957600080fd5b50610225610318366004610e97565b61077d565b34801561032957600080fd5b50610225610338366004610e53565b6109d7565b34801561034957600080fd5b5061017a60085481565b60606003805461036290610ee3565b80601f016020809104026020016040519081016040528092919081815260200182805461038e90610ee3565b80156103db5780601f106103b0576101008083540402835291602001916103db565b820191906000526020600020905b8154815290600101906020018083116103be57829003601f168201915b5050505050905090565b6000336103f3818585610a15565b60019150505b92915050565b60003361040d858285610a27565b610418858585610aa6565b506001949350505050565b61042b610b05565b6104356000610b32565b565b60606004805461036290610ee3565b6000336103f3818585610aa6565b61045c610b05565b60008211801561046c5750600081115b6104bd5760405162461bcd60e51b815260206004820152601c60248201527f5261746573206d7573742062652067726561746572207468616e20300000000060448201526064015b60405180910390fd5b6007829055600881905560408051838152602081018390527f0cf6ce3db485f79e960e63b1550af071fe0c99c09834149273e0fa8b32018ff8910160405180910390a15050565b600081116105545760405162461bcd60e51b815260206004820152601d60248201527f416d6f756e74206d7573742062652067726561746572207468616e203000000060448201526064016104b4565b600654604051630b1fba9160e11b81523360048201526001600160a01b039091169063163f752290602401602060405180830381865afa15801561059c573d6000803e3d6000fd5b505050506040513d601f19601f820116820180604052508101906105c09190610f1d565b6106025760405162461bcd60e51b8152602060048201526013602482015272155cd95c881b9bdd081c9959da5cdd195c9959606a1b60448201526064016104b4565b60075460009061061a83670de0b6b3a7640000610f55565b6106249190610f6c565b90508034101561066e5760405162461bcd60e51b8152602060048201526015602482015274125b9cdd59999a58da595b9d08115512081cd95b9d605a1b60448201526064016104b4565b60006106826005546001600160a01b031690565b9050826106a4826001600160a01b031660009081526020819052604090205490565b10156106f25760405162461bcd60e51b815260206004820152601d60248201527f4f776e65722068617320696e73756666696369656e7420746f6b656e7300000060448201526064016104b4565b6106fd813385610aa6565b8134111561073d57336108fc6107138434610f8e565b6040518115909202916000818181858888f1935050505015801561073b573d6000803e3d6000fd5b505b604080518381526020810185905233917f8fafebcaf9d154343dad25669bfa277f4fbacd7ac6b0c4fed522580e040a0f33910160405180910390a2505050565b600081116107cd5760405162461bcd60e51b815260206004820152601d60248201527f416d6f756e74206d7573742062652067726561746572207468616e203000000060448201526064016104b4565b600654604051630b1fba9160e11b81523360048201526001600160a01b039091169063163f752290602401602060405180830381865afa158015610815573d6000803e3d6000fd5b505050506040513d601f19601f820116820180604052508101906108399190610f1d565b61087b5760405162461bcd60e51b8152602060048201526013602482015272155cd95c881b9bdd081c9959da5cdd195c9959606a1b60448201526064016104b4565b336000908152602081905260409020548111156108da5760405162461bcd60e51b815260206004820152601a60248201527f496e73756666696369656e7420746f6b656e2062616c616e636500000000000060448201526064016104b4565b6008546000906108f283670de0b6b3a7640000610f55565b6108fc9190610f6c565b90508047101561094e5760405162461bcd60e51b815260206004820152601d60248201527f436f6e74726163742068617320696e73756666696369656e742045544800000060448201526064016104b4565b61096a336109646005546001600160a01b031690565b84610aa6565b604051339082156108fc029083906000818181858888f19350505050158015610997573d6000803e3d6000fd5b50604080518381526020810183905233917f2dcf9433d75db0d8b1c172641f85e319ffe4ad22e108a95d1847ceb906e5195d910160405180910390a25050565b6109df610b05565b6001600160a01b038116610a0957604051631e4fbdf760e01b8152600060048201526024016104b4565b610a1281610b32565b50565b610a228383836001610b84565b505050565b6001600160a01b03838116600090815260016020908152604080832093861683529290522054600019811015610aa05781811015610a9157604051637dc7a0d960e11b81526001600160a01b038416600482015260248101829052604481018390526064016104b4565b610aa084848484036000610b84565b50505050565b6001600160a01b038316610ad057604051634b637e8f60e11b8152600060048201526024016104b4565b6001600160a01b038216610afa5760405163ec442f0560e01b8152600060048201526024016104b4565b610a22838383610c59565b6005546001600160a01b031633146104355760405163118cdaa760e01b81523360048201526024016104b4565b600580546001600160a01b038381166001600160a01b0319831681179093556040519116919082907f8be0079c531659141344cd1fd0a4f28419497f9722a3daafe3b4186f6b6457e090600090a35050565b6001600160a01b038416610bae5760405163e602df0560e01b8152600060048201526024016104b4565b6001600160a01b038316610bd857604051634a1406b160e11b8152600060048201526024016104b4565b6001600160a01b0380851660009081526001602090815260408083209387168352929052208290558015610aa057826001600160a01b0316846001600160a01b03167f8c5be1e5ebec7d5bd14f71427d1e84f3dd0314c0f7b2291e5b200ac8c7c3b92584604051610c4b91815260200190565b60405180910390a350505050565b6001600160a01b038316610c84578060026000828254610c799190610fa1565b90915550610cf69050565b6001600160a01b03831660009081526020819052604090205481811015610cd75760405163391434e360e21b81526001600160a01b038516600482015260248101829052604481018390526064016104b4565b6001600160a01b03841660009081526020819052604090209082900390555b6001600160a01b038216610d1257600280548290039055610d31565b6001600160a01b03821660009081526020819052604090208054820190555b816001600160a01b0316836001600160a01b03167fddf252ad1be2c89b69c2b068fc378daa952ba7f163c4a11628f55a4df523b3ef83604051610d7691815260200190565b60405180910390a3505050565b600060208083528351808285015260005b81811015610db057858101830151858201604001528201610d94565b506000604082860101526040601f19601f8301168501019250505092915050565b80356001600160a01b0381168114610de857600080fd5b919050565b60008060408385031215610e0057600080fd5b610e0983610dd1565b946020939093013593505050565b600080600060608486031215610e2c57600080fd5b610e3584610dd1565b9250610e4360208501610dd1565b9150604084013590509250925092565b600060208284031215610e6557600080fd5b610e6e82610dd1565b9392505050565b60008060408385031215610e8857600080fd5b50508035926020909101359150565b600060208284031215610ea957600080fd5b5035919050565b60008060408385031215610ec357600080fd5b610ecc83610dd1565b9150610eda60208401610dd1565b90509250929050565b600181811c90821680610ef757607f821691505b602082108103610f1757634e487b7160e01b600052602260045260246000fd5b50919050565b600060208284031215610f2f57600080fd5b81518015158114610e6e57600080fd5b634e487b7160e01b600052601160045260246000fd5b80820281158282048414176103f9576103f9610f3f565b600082610f8957634e487b7160e01b600052601260045260246000fd5b500490565b818103818111156103f9576103f9610f3f565b808201808211156103f9576103f9610f3f56fea264697066735822122019db05db68f8a1c8b3f4fb24cb044b161533e4203058f21448fda8ad27b9c0ea64736f6c63430008140033",
  "linkReferences": {},
  "deployedLinkReferences": {}
}